{
  "contractName": "PilotControls",
  "abi": [
    {
      "constant": false,
      "inputs": [
        {
          "name": "_name",
          "type": "string"
        }
      ],
      "name": "createPilotAvatar",
      "outputs": [],
      "payable": false,
      "stateMutability": "nonpayable",
      "type": "function"
    },
    {
      "constant": true,
      "inputs": [
        {
          "name": "",
          "type": "address"
        }
      ],
      "name": "ownerToPilot",
      "outputs": [
        {
          "name": "",
          "type": "uint256"
        }
      ],
      "payable": false,
      "stateMutability": "view",
      "type": "function"
    },
    {
      "constant": true,
      "inputs": [
        {
          "name": "",
          "type": "uint256"
        }
      ],
      "name": "pilots",
      "outputs": [
        {
          "name": "name",
          "type": "string"
        },
        {
          "name": "graduationDate",
          "type": "uint32"
        }
      ],
      "payable": false,
      "stateMutability": "view",
      "type": "function"
    },
    {
      "constant": true,
      "inputs": [
        {
          "name": "",
          "type": "address"
        }
      ],
      "name": "pilotCreated",
      "outputs": [
        {
          "name": "",
          "type": "bool"
        }
      ],
      "payable": false,
      "stateMutability": "view",
      "type": "function"
    },
    {
      "anonymous": false,
      "inputs": [
        {
          "indexed": false,
          "name": "_name",
          "type": "string"
        }
      ],
      "name": "NewPilot",
      "type": "event"
    },
    {
      "constant": true,
      "inputs": [],
      "name": "myPilotId",
      "outputs": [
        {
          "name": "",
          "type": "uint256"
        }
      ],
      "payable": false,
      "stateMutability": "view",
      "type": "function"
    },
    {
      "constant": true,
      "inputs": [],
      "name": "myPilot",
      "outputs": [
        {
          "name": "",
          "type": "string"
        }
      ],
      "payable": false,
      "stateMutability": "view",
      "type": "function"
    },
    {
      "constant": true,
      "inputs": [],
      "name": "showPilotCount",
      "outputs": [
        {
          "name": "",
          "type": "uint256"
        }
      ],
      "payable": false,
      "stateMutability": "view",
      "type": "function"
    }
  ],
  "bytecode": "0x608060405234801561001057600080fd5b50610844806100206000396000f300608060405260043610610083576000357c0100000000000000000000000000000000000000000000000000000000900463ffffffff16806312d1a384146100885780633e3255ea146100f1578063a95beed314610148578063d51ef6e9146101d8578063e19ddff314610203578063e2341e07146102bc578063eab8c6a314610317575b600080fd5b34801561009457600080fd5b506100ef600480360381019080803590602001908201803590602001908080601f0160208091040260200160405190810160405280939291908181526020018383808284378201915050505050509192919290505050610342565b005b3480156100fd57600080fd5b50610132600480360381019080803573ffffffffffffffffffffffffffffffffffffffff1690602001909291905050506103ad565b6040518082815260200191505060405180910390f35b34801561015457600080fd5b5061015d6103c5565b6040518080602001828103825283818151815260200191508051906020019080838360005b8381101561019d578082015181840152602081019050610182565b50505050905090810190601f1680156101ca5780820380516001836020036101000a031916815260200191505b509250505060405180910390f35b3480156101e457600080fd5b506101ed61048c565b6040518082815260200191505060405180910390f35b34801561020f57600080fd5b5061022e60048036038101908080359060200190929190505050610537565b60405180806020018363ffffffff1663ffffffff168152602001828103825284818151815260200191508051906020019080838360005b83811015610280578082015181840152602081019050610265565b50505050905090810190601f1680156102ad5780820380516001836020036101000a031916815260200191505b50935050505060405180910390f35b3480156102c857600080fd5b506102fd600480360381019080803573ffffffffffffffffffffffffffffffffffffffff169060200190929190505050610612565b604051808215151515815260200191505060405180910390f35b34801561032357600080fd5b5061032c610632565b6040518082815260200191505060405180910390f35b60001515600260003373ffffffffffffffffffffffffffffffffffffffff1673ffffffffffffffffffffffffffffffffffffffff16815260200190815260200160002060009054906101000a900460ff1615151415156103a157600080fd5b6103aa8161063e565b50565b60016020528060005260406000206000915090505481565b606060006103d161048c565b8154811015156103dd57fe5b90600052602060002090600202016000018054600181600116156101000203166002900480601f0160208091040260200160405190810160405280929190818152602001828054600181600116156101000203166002900480156104825780601f1061045757610100808354040283529160200191610482565b820191906000526020600020905b81548152906001019060200180831161046557829003601f168201915b5050505050905090565b60008060011515600260003373ffffffffffffffffffffffffffffffffffffffff1673ffffffffffffffffffffffffffffffffffffffff16815260200190815260200160002060009054906101000a900460ff1615151415156104ee57600080fd5b600160003373ffffffffffffffffffffffffffffffffffffffff1673ffffffffffffffffffffffffffffffffffffffff1681526020019081526020016000205490508091505090565b60008181548110151561054657fe5b9060005260206000209060020201600091509050806000018054600181600116156101000203166002900480601f0160208091040260200160405190810160405280929190818152602001828054600181600116156101000203166002900480156105f25780601f106105c7576101008083540402835291602001916105f2565b820191906000526020600020905b8154815290600101906020018083116105d557829003601f168201915b5050505050908060010160009054906101000a900463ffffffff16905082565b60026020528060005260406000206000915054906101000a900460ff1681565b60008080549050905090565b60006001600060408051908101604052808581526020014263ffffffff168152509080600181540180825580915050906001820390600052602060002090600202016000909192909190915060008201518160000190805190602001906106a6929190610773565b5060208201518160010160006101000a81548163ffffffff021916908363ffffffff160217905550505003905080600160003373ffffffffffffffffffffffffffffffffffffffff1673ffffffffffffffffffffffffffffffffffffffff168152602001908152602001600020819055506001600260003373ffffffffffffffffffffffffffffffffffffffff1673ffffffffffffffffffffffffffffffffffffffff16815260200190815260200160002060006101000a81548160ff0219169083151502179055505050565b828054600181600116156101000203166002900490600052602060002090601f016020900481019282601f106107b457805160ff19168380011785556107e2565b828001600101855582156107e2579182015b828111156107e15782518255916020019190600101906107c6565b5b5090506107ef91906107f3565b5090565b61081591905b808211156108115760008160009055506001016107f9565b5090565b905600a165627a7a7230582020c58a97c03b8830dc19e4e17a87ca95103e2ecd79260c197ee3b48cd25d51d60029",
  "source": "pragma solidity ^0.4.17;\n\nimport \"./Pilot.sol\";\n\ncontract PilotControls is PilotFactory {\n\n    function myPilotId() public view returns(uint) {\n        require(pilotCreated[msg.sender] == true);\n        uint _pilotId = ownerToPilot[msg.sender];\n        return _pilotId;\n    }\n\n    function myPilot() public view returns(string) {\n        return pilots[myPilotId()].name;\n    }\n\n    function showPilotCount() external view returns(uint) {\n        return uint(pilots.length);\n    }\n    \n}",
  "sourcePath": "/home/zaskoda/projects/eth/hello/contracts/PilotControls.sol",
  "compiler": {
    "name": "solc",
    "version": "0.4.24+commit.e67f0147.Emscripten.clang"
  },
  "schemaVersion": "2.0.0",
  "updatedAt": "2018-06-03T13:23:19.308Z"
}