{
  "contractName": "PilotFactory",
  "abi": [
    {
      "constant": true,
      "inputs": [
        {
          "name": "",
          "type": "address"
        }
      ],
      "name": "ownerToPilot",
      "outputs": [
        {
          "name": "",
          "type": "uint256"
        }
      ],
      "payable": false,
      "stateMutability": "view",
      "type": "function"
    },
    {
      "constant": true,
      "inputs": [
        {
          "name": "",
          "type": "uint256"
        }
      ],
      "name": "pilots",
      "outputs": [
        {
          "name": "name",
          "type": "string"
        },
        {
          "name": "graduationDate",
          "type": "uint32"
        }
      ],
      "payable": false,
      "stateMutability": "view",
      "type": "function"
    },
    {
      "constant": true,
      "inputs": [
        {
          "name": "",
          "type": "address"
        }
      ],
      "name": "pilotCreated",
      "outputs": [
        {
          "name": "",
          "type": "bool"
        }
      ],
      "payable": false,
      "stateMutability": "view",
      "type": "function"
    },
    {
      "anonymous": false,
      "inputs": [
        {
          "indexed": false,
          "name": "_name",
          "type": "string"
        }
      ],
      "name": "NewPilot",
      "type": "event"
    },
    {
      "constant": false,
      "inputs": [
        {
          "name": "_name",
          "type": "string"
        }
      ],
      "name": "createPilotAvatar",
      "outputs": [],
      "payable": false,
      "stateMutability": "nonpayable",
      "type": "function"
    }
  ],
  "bytecode": "0x608060405234801561001057600080fd5b506105bf806100206000396000f300608060405260043610610062576000357c0100000000000000000000000000000000000000000000000000000000900463ffffffff16806312d1a384146100675780633e3255ea146100d0578063e19ddff314610127578063e2341e07146101e0575b600080fd5b34801561007357600080fd5b506100ce600480360381019080803590602001908201803590602001908080601f016020809104026020016040519081016040528093929190818152602001838380828437820191505050505050919291929050505061023b565b005b3480156100dc57600080fd5b50610111600480360381019080803573ffffffffffffffffffffffffffffffffffffffff1690602001909291905050506102a6565b6040518082815260200191505060405180910390f35b34801561013357600080fd5b50610152600480360381019080803590602001909291905050506102be565b60405180806020018363ffffffff1663ffffffff168152602001828103825284818151815260200191508051906020019080838360005b838110156101a4578082015181840152602081019050610189565b50505050905090810190601f1680156101d15780820380516001836020036101000a031916815260200191505b50935050505060405180910390f35b3480156101ec57600080fd5b50610221600480360381019080803573ffffffffffffffffffffffffffffffffffffffff169060200190929190505050610399565b604051808215151515815260200191505060405180910390f35b60001515600260003373ffffffffffffffffffffffffffffffffffffffff1673ffffffffffffffffffffffffffffffffffffffff16815260200190815260200160002060009054906101000a900460ff16151514151561029a57600080fd5b6102a3816103b9565b50565b60016020528060005260406000206000915090505481565b6000818154811015156102cd57fe5b9060005260206000209060020201600091509050806000018054600181600116156101000203166002900480601f0160208091040260200160405190810160405280929190818152602001828054600181600116156101000203166002900480156103795780601f1061034e57610100808354040283529160200191610379565b820191906000526020600020905b81548152906001019060200180831161035c57829003601f168201915b5050505050908060010160009054906101000a900463ffffffff16905082565b60026020528060005260406000206000915054906101000a900460ff1681565b60006001600060408051908101604052808581526020014263ffffffff168152509080600181540180825580915050906001820390600052602060002090600202016000909192909190915060008201518160000190805190602001906104219291906104ee565b5060208201518160010160006101000a81548163ffffffff021916908363ffffffff160217905550505003905080600160003373ffffffffffffffffffffffffffffffffffffffff1673ffffffffffffffffffffffffffffffffffffffff168152602001908152602001600020819055506001600260003373ffffffffffffffffffffffffffffffffffffffff1673ffffffffffffffffffffffffffffffffffffffff16815260200190815260200160002060006101000a81548160ff0219169083151502179055505050565b828054600181600116156101000203166002900490600052602060002090601f016020900481019282601f1061052f57805160ff191683800117855561055d565b8280016001018555821561055d579182015b8281111561055c578251825591602001919060010190610541565b5b50905061056a919061056e565b5090565b61059091905b8082111561058c576000816000905550600101610574565b5090565b905600a165627a7a723058203e46b604339a65017832f8812d87037bd9c2b3da7aff48926bd267ffee229f560029",
  "source": "pragma solidity ^0.4.17;\n\ncontract PilotFactory {\n\n    event NewPilot(string _name);\n\n    //rank and title?\n    struct Pilot {\n        string name;\n        uint32 graduationDate;\n    }\n\n    Pilot[] public pilots;\n\n    mapping (address => uint) public ownerToPilot;\n    mapping (address => bool) public pilotCreated;\n\n\n    function _createPilot(string _name) internal {\n        uint id = pilots.push(Pilot(_name, uint32(now))) -1;\n        ownerToPilot[msg.sender] = id;\n        pilotCreated[msg.sender] = true;\n    }\n\n    function createPilotAvatar(string _name) public {\n        //an account is limited to 1 pilot\n        require(pilotCreated[msg.sender] == false);\n        _createPilot(_name);\n    }\n}",
  "sourcePath": "/home/zaskoda/projects/eth/hello/contracts/Pilot.sol",
  "compiler": {
    "name": "solc",
    "version": "0.4.24+commit.e67f0147.Emscripten.clang"
  },
  "schemaVersion": "2.0.0",
  "updatedAt": "2018-06-03T13:23:19.303Z"
}